:1000000009C4000023C4000021C400001FC4000074
:100010001DC400001BC4000019C4000017C4000068
:1000200015C400000C94C5290C94F22C0C94B72C28
:100030000DC400000BC4000009C4000007C4000088
:1000400005C400000C94891501C40000FFC3000022
:10005000FDC30000FBC30000F9C300000C9465144D
:10006000F5C30000F3C30000F1C30000EFC30000BC
:10007000EDC30000EBC30000E9C30000E7C30000CC
:10008000E5C30000E3C30000E1C30000DFC30000DC
:10009000DDC30000DBC30000D9C30000D7C30000EC
:1000A000D5C30000D3C30000D1C300008D1E8D1E38
:1000B0008D1EA41EB91EC21ECB1ED41EDD1EF41E34
:1000C000001F091F121F1B1F2D1F411F531F691FD8
:1000D0007B1F841F8D1F961FA11F084AD73B3BCE55
:1000E000016E84BCBFFDC12F3D6C74319ABD568337
:1000F0003DDA3D00C77F11BED9E4BB4C3E916BAAEF
:10010000AABE000000803F05A84CCDB2D44EB9383D
:1001100036A9020C50B9918688083CA6AAAA2ABE24
:10012000000000803F0D0A27242720746F2064758B
:100130006D702063757272656E7420736574746976
:100140006E67730D0A000D0A000D0A4772626C009B
:100150003E0D0A002C0057506F733A002C002C4DB6
:10016000506F733A003C436865636B003C416C61BF
:10017000726D003C486F6D65003C486F6C64003CDC
:1001800052756E003C5175657565003C49646C653F
:10019000000D0A003D00244E005D0D0A00204600BF
:1001A000205400204D3500204D3400204D330020D8
:1001B0004D3200204D3100204D30002047393400B1
:1001C000204739330020473931002047393000209B
:1001D0004732310020473230002047313900204774
:1001E00031380020473137002047005B4738300066
:1001F0005B4733005B4732005B4731005B473000B1
:100200005D0D0A002C005B4739323A005D0D0A0093
:100210002C0033303A0032383A0035393A0035385C
:100220003A0035373A0035363A0035353A0035343C
:100230003A005B47002028686F6D696E6720707513
:100240006C6C2D6F66662C206D6D290D0A002028C0
:10025000686F6D696E67206465626F756E63652C8B
:10026000206D736563290D0A2432323D0020286811
:100270006F6D696E67207365656B2C206D6D2F6DDA
:10028000696E290D0A2432313D002028686F6D699E
:100290006E6720666565642C206D6D2F6D696E2913
:1002A0000D0A2432303D00290D0A2431393D002049
:1002B00028686F6D696E672064697220696E766563
:1002C0007274206D61736B2C20696E743A00202863
:1002D000686F6D696E67206379636C652C20626F4F
:1002E0006F6C290D0A2431383D0020286861726442
:1002F000206C696D6974732C20626F6F6C290D0A14
:100300002431373D002028696E766572742073743D
:10031000657020656E61626C652C20626F6F6C2960
:100320000D0A2431363D0020286175746F207374E6
:100330006172742C20626F6F6C290D0A2431353D77
:100340000020287265706F727420696E636865732F
:100350002C20626F6F6C290D0A2431343D00202857
:100360006E2D646563696D616C732C20696E7429F0
:100370000D0A2431333D0020286E2D617263206305
:100380006F7272656374696F6E2C20696E74290DCB
:100390000A2431323D0020286172632C206D6D2FBC
:1003A0007365676D656E74290D0A2431313D002037
:1003B000286A756E6374696F6E206465766961740E
:1003C000696F6E2C206D6D290D0A2431303D00209F
:1003D00028616363656C65726174696F6E2C206D52
:1003E0006D2F7365635E32290D0A24393D00202884
:1003F000737465702069646C652064656C61792C28
:10040000206D736563290D0A24383D00290D0A24E7
:10041000373D0020287374657020706F72742069F6
:100420006E76657274206D61736B2C20696E743A00
:1004300000202864656661756C74207365656B2C9B
:10044000206D6D2F6D696E290D0A24363D00202820
:1004500064656661756C7420666565642C206D6DDD
:100460002F6D696E290D0A24353D002028737465AF
:10047000702070756C73652C2075736563290D0A87
:1004800024343D0020287A2C20737465702F6D6D04
:10049000290D0A24333D002028792C2073746570BF
:1004A0002F6D6D290D0A24323D002028782C2073F1
:1004B0007465702F6D6D290D0A24313D0024303D87
:1004C000002424202876696577204772626C2073A7
:1004D000657474696E6773290D0A24232028766970
:1004E0006577202320706172616D65746572732970
:1004F0000D0A24472028766965772070617273653C
:1005000072207374617465290D0A244E202876695F
:100510006577207374617274757020626C6F636BA1
:1005200073290D0A24783D76616C75652028736106
:100530007665204772626C2073657474696E6729F2
:100540000D0A244E783D6C696E65202873617665CE
:10055000207374617274757020626C6F636B290D07
:100560000A24432028636865636B2067636F6465B2
:10057000206D6F6465290D0A245820286B696C6C06
:1005800020616C61726D206C6F636B290D0A2448C9
:10059000202872756E20686F6D696E6720637963BD
:1005A0006C65290D0A7E20286379636C652073745D
:1005B000617274290D0A2120286665656420686FC0
:1005C0006C64290D0A3F202863757272656E742071
:1005D000737461747573290D0A6374726C2D7820BD
:1005E000287265736574204772626C290D0A000DCC
:1005F0000A4772626C20302E3863205B2724272044
:10060000666F722068656C705D0D0A005D0D0A00F2
:1006100044697361626C656400456E61626C656417
:100620000043617574696F6E3A20556E6C6F636B31
:10063000656400272448277C2724582720746F20CE
:10064000756E6C6F636B00526573657420746F20F8
:10065000636F6E74696E7565005B002E204D506F80
:10066000733F0D0A0041626F727420647572696E87
:1006700067206379636C650048617264206C696D02
:10068000697400414C41524D3A20000D0A004C69FA
:100690006E65206F766572666C6F7700416C617273
:1006A0006D206C6F636B0042757379206F722071DF
:1006B000756575656400454550524F4D2072656102
:1006C00064206661696C2E205573696E67206465CD
:1006D0006661756C74730056616C7565203C2033DF
:1006E00020757365630056616C7565203C20302E63
:1006F000300053657474696E672064697361626C5D
:10070000656400496E76616C696420737461746518
:100710006D656E74004D6F64616C2067726F7570EB
:100720002076696F6C6174696F6E00496E76616CDA
:1007300069642072616469757300556E73757070B9
:100740006F727465642073746174656D656E740096
:10075000457870656374656420636F6D6D616E6468
:10076000206C657474657200426164206E756D6200
:10077000657220666F726D6174006572726F723A95
:1007800020006F6B0D0A00120110010200000841E9
:1007900023368001000102DC0109023E0002010053
:1007A000C0FA090400000102020100052400100142
:1007B000042402060524060001070582030800FF41
:1007C00009040100020A00000007050402100005E8
:1007D000070583021000050403090418034400659B
:1007E0000061006E002000430061006D0065007232
:1007F00000610000001C034C005500460041002031
:10080000004300440043002000440065006D006F79
:100810000000000011241FBECFEFDAE0DEBFCDBF25
:1008200011E0A0E0B1E0EAEFFDE602C005900D9214
:10083000A032B107D9F716E0A0E2B1E001C01D92E5
:10084000A238B107E1F703D00C94FB36D9CB1F9344
:100850000E9405120E949A200E946015789480E1FF
:10086000EAEFF5E0DF011D928A95E9F781E08093D8
:10087000FA058093FB0511E08091FA05882321F1A8
:100880000E94BF110E94A1280E9480110E9447145B
:100890000E94AB290E9434150E94B4281092FA05D8
:1008A0001092FC058091620681FF02C01093090638
:1008B0008091FB05863021F482E00E942C1904C04F
:1008C0001092FB050E9485120E9429120E94C811F5
:1008D000D3CF8091FC0584FD11C08091FC0580611F
:1008E0008093FC058091FB058350833038F4809120
:1008F000FC0580628093FC050C9447150895EF92E7
:10090000FF920F931F93CF93DF937B018C0120E025
:1009100030E040EA51E40E94A1350E94A9330E94D0
:100920004033EB010E948428C801B70120E030E089
:100930004AE754E40E94A1357B018C0182E390E0F8
:10094000C89FB001C99F700DD89F700D112480E021
:1009500090E00E946C339B01AC01C801B7010E947A
:10096000F2310E94A9330E944033DC01CB010E9486
:10097000AA2800E911E00EC00E9429128091FA0510
:10098000882351F484EF91E0F8013197F1F7019752
:10099000D9F72197209781F7DF91CF911F910F9180
:1009A000FF90EF9008954F925F926F927F928F9297
:1009B000AF92BF92CF92DF92EF92FF920F931F936D
:1009C000DF93CF9300D000D0CDB7DEB72B013C0131
:1009D00029833A834B835C838091FB058730F9F050
:1009E0000E9429128091FA058823C9F40E94582197
:1009F0008823B1F7C301B20129813A814B815C811F
:100A00000E94F1248091FB05882319F482E08093F1
:100A1000FB0580910906882311F00E94E1140F90D4
:100A20000F900F900F90CF91DF911F910F91FF903A
:100A3000EF90DF90CF90BF90AF908F907F906F90AE
:100A40005F904F9008958F92AF92BF92CF92DF92B6
:100A5000EF92FF920F931F9385E08093FB058091A7
:100A60006B0080936B000E9429128091FA05882305
:100A7000B1F58CE0EDEFF5E0DF011D928A95E9F725
:100A80000E94B4281092FB0560916E0670916F066B
:100A9000809170069091710620E030E040E050E0D7
:100AA0000E94A1357B018C01A0906806B090690678
:100AB000C0906A06D0906B069B01A801C8018824EB
:100AC00072DF0E94E1140E9484280E94B428809161
:100AD000620683FF04C080916B0080936B001F91BE
:100AE0000F91FF90EF90DF90CF90BF90AF908F90DD
:100AF00008952F923F924F925F926F927F928F92C2
:100B00009F92AF92BF92CF92DF92EF92FF920F939C
:100B10001F93DF93CF93CDB7DEB7CE54D0400FB63F
:100B2000F894DEBF0FBECDBF3C017EAF6DAF219606
:100B30005FAF4EAF219722962FAF229723960FAF2C
:100B400023972496EFAE24972896ACAEBDAECEAEDA
:100B5000DFAE289729968FAE2997E22EFF24EE0C60
:100B6000FF1CEE0CFF1C4E0D5F1D5CAF4BAFDA019E
:100B70002D903D904D905C90FC01EE0DFF1DC2014B
:100B8000B10120813181428153810E94F33169ABEF
:100B90007AAB8BAB9CAB10E0000F111F000F111F45
:100BA0002196EEADFFAD2197E00FF11FFAAFE9AF4F
:100BB000A080B180C280D380F301E00FF11FC60195
:100BC000B50120813181428153810E94F3316DA7AB
:100BD0007EA78FA798AB24962FAD2497E22FF0E045
:100BE000EE0FFF1FEE0FFF1F6E0E7F1ED3018D91C4
:100BF0009D910D90BC91A02D8DAB9EABAFABB8AFCE
:100C00002DAD3EADE20FF31F608171818281938132
:100C10002DA93EA94FA958AD0E94F23169A77AA724
:100C20008BA79CA7D201C101B0588DA39EA3AFA3EF
:100C3000B8A7A6019501505829A33AA34BA35CA3DA
:100C40004DAD5EADE40EF51ED7016D917D918D9198
:100C50009C9129A93AA94BA95CA90E94F2313B01B8
:100C60004C01EDADFEAD0E0F1F1FD8016D917D91B2
:100C70008D919C912DA53EA54FA558A90E94F231BA
:100C80005B016C016DA17EA18FA198A5A6019501C4
:100C90000E94A1357B018C0169A17AA18BA19CA145
:100CA000A40193010E94A1359B01AC01C801B701C9
:100CB0000E94F2311B012C016DA17EA18FA198A58C
:100CC000A40193010E94A1357B018C0169A17AA145
:100CD0008BA19CA1A60195010E94A1359B01AC01AD
:100CE000C801B7010E94F3319B01AC01C201B101FF
:100CF0000E9466325B016C01A8968FADA89788238D
:100D000099F0C601B50120E030E040E050E00E94DB
:100D1000CF348823ECF0C601B5012BED3FE049EC60
:100D200050E40E94F23112C0C601B50120E030E06B
:100D300040E050E00E94CC32181654F0C601B501D4
:100D40002BED3FE049EC50E40E94F3315B016C0174
:100D5000C601B501A7962CAD3DAD4EAD5FADA797D1
:100D60000E94A13529A53AA54BA55CA50E94DC34BB
:100D70007B018C0120E030E040E050E00E94CC326A
:100D8000882309F4D3C1C801B701209156063091D8
:100D9000570640915806509159060E94D3320E943E
:100DA000A9330E94403378A36F8F2996BFAD29974E
:100DB000BB23A1F080E090E00E946C339B01AC016A
:100DC00028966CAD7DAD8EAD9FAD28970E94A13564
:100DD00028966CAF7DAF8EAF9FAF28972F8D38A12F
:100DE000B90180E090E00E946C337B018C01C60168
:100DF000B501A80197010E94D3326B8F7C8F8D8F34
:100E00009E8F69A57AA58BA59CA5A80197010E9434
:100E1000D3326F8B788F898F9A8F6B8D7C8D8D8D70
:100E20009E8D20E030E040E05FEB0E94A1352B8DED
:100E30003C8D4D8D5E8D0E94A13520E030E040E874
:100E40005FE30E94F3316B8B7C8B8D8B9E8B2496A2
:100E50003FAD2497E32FF0E0EE0FFF1FEE0FFF1FD3
:100E6000CE010196E80FF91F2DA93EA94FA958AD53
:100E7000208331834283538341E050E05E874D8776
:100E800066242296BFAD2297AB2FB0E0AA0FBB1FFE
:100E9000AA0FBB1FA80FB91F2B96BFAFAEAF2B97E2
:100EA00023963FAD2397232F30E0220F331F220FCD
:100EB000331F280F391F2D963FAF2EAF2D972F963A
:100EC000FFAFEEAF2F970DC1262D332727FD3095AD
:100ED0008091740690E0281739070CF046C06DA188
:100EE0007EA18FA198A52B8D3C8D4D8D5E8D0E948E
:100EF000A1357B018C0169A17AA18BA19CA12B89D1
:100F00003C894D895E890E94A1359B01AC01C801D5
:100F1000B7010E94F3317B018C016DA17EA18FA1ED
:100F200098A52B893C894D895E890E94A1355B017A
:100F30006C0169A17AA18BA19CA12B8D3C8D4D8D5B
:100F40005E8D0E94A1359B01AC01C601B5010E94D6
:100F5000F2316DA37EA38FA398A76394C701D80134
:100F600089A39AA3ABA3BCA361C04D855E85BA01DA
:100F700080E090E00E946C332B8D3C8D4D8D5E8D1A
:100F80000E94A1357B018C01C8010E94D0326F877D
:100F9000788B898B9A8BB701C8010E9424363B015C
:100FA0004C01ABADBCADED90FD900D911C9117FBCC
:100FB000109517F91095E9ADFAAD20803180428087
:100FC0005380C801B7012F85388949895A890E9401
:100FD000A1355B016C01C201B101A40193010E9422
:100FE000A1359B01AC01C601B5010E94F3316DA38F
:100FF0007EA38FA398A7C801B701A40193010E9403
:10100000A1357B018C01C201B1012F853889498945
:101010005A890E94A1359B01AC01C801B7010E9409
:10102000F23169A37AA38BA39CA3662469A97AA948
:101030008BA99CA92DA13EA14FA158A50E94F331D7
:101040002B96AEADBFAD2B976D937D938D939C93F7
:1010500013976DA57EA58FA598A929A13AA14BA1AB
:101060005CA10E94F3312D96EEADFFAD2D9760830C
:101070007183828393832F96AEADBFAD2F976D9111
:101080007D918D919C912F89388D498D5A8D0E942B
:10109000F3312F96EEADFFAD2F976083718382837E
:1010A000938369817A818B819C812D813E814F81DF
:1010B0005885E984FA840B851C852896ACACBDACB8
:1010C000CEACDFAC289729968FAC29976CDC809149
:1010D000FA05882359F52D853E852F5F3F4F3E87C2
:1010E0002D874D855E858F8D98A14817590708F487
:1010F000EBCEADADBEAD6D917D918D919C91139771
:1011000014962D913D914D915C9117971896ED9005
:10111000FD900D911C911B972896ACACBDACCEAC4C
:10112000DFAC289729968FAC29973DDCC25BDF4F57
:101130000FB6F894DEBF0FBECDBFCF91DF911F91E8
:101140000F91FF90EF90DF90CF90BF90AF909F9066
:101150008F907F906F905F904F903F902F90089569
:101160008093230660932406409325060895AF924A
:10117000BF92CF92DF92EF92FF920F931F9359018C
:101180006A010E946E3320913F06309140064091E3
:101190004106509142060E94D33260931606709326
:1011A00017068093180690931906C601B5010E9490
:1011B0006E3320914306309144064091450650918C
:1011C00046060E94D33260931A0670931B068093E2
:1011D0001C0690931D06C801B7010E946E33209132
:1011E0004706309148064091490650914A060E94B0
:1011F000D33260931E0670931F068093200690934F
:1012000021061F910F91FF90EF90DF90CF90BF903C
:10121000AF900895EF92FF920F931F937B018C0183
:1012200080910D06882351F0C801B70123E333E311
:101230004BEC51E40E94A1357B018C01B701C80140
:101240001F910F91FF90EF9008950F931F93CF93ED
:10125000DF93EC018B01D9018C91FA01E80FF11DAC
:10126000E081EE23B1F0E883E154EA3110F082E04E
:101270000EC08C918F5F8C93CA01B901A8010E94A6
:10128000F028892B19F021E030E005C081E080933F
:101290000A0620E030E0C901DF91CF911F910F9144
:1012A00008952F923F924F925F926F927F928F920A
:1012B0009F92AF92BF92CF92DF92EF92FF920F93E5
:1012C0001F93DF93CF93CDB7DEB7C954D0400FB68D
:1012D000F894DEBF0FBECDBF26969FAF8EAF269788
:1012E0008091FB05863011F48CE0F0C719828CE008
:1012F000FE013796DF01482F1D924A95E9F7FE015E
:101300007396DF011D928A95E9F710920A062496DA
:101310001FAE1EAE249722961FAE229721961FAEB7
:10132000219782E0882E912C8C0E9D1E03E0602E6A
:10133000712C6C0E7D1E2E010894411C511C11E075
:10134000212E312CB5E0AB2EA3E0BA2ECC24C394D1
:10135000BAC1EB80FC800D811E81C801B7010E94DB
:101360006F360E943B339B014A81473421F04D3454
:1013700009F0A9C14CC16E317105C9F16F31710518
:10138000D4F46431710584F461317105B4F56430CD
:10139000710569F1653071051CF477235CF525C092
:1013A0006A30710511F523C0663171057CF16C312D
:1013B0007105D9F41CC06C3571058CF46A35710562
:1013C000FCF46C3371053CF46633710514F5653338
:1013D000710559F40CC06035710539F40BC06C35DA
:1013E000710529F06F35710574F0DD2414C0DD241A
:1013F000D39411C0F2E0DF2E0EC0E3E0DE2E0BC06E
:1014000074E0D72E08C066E0D62E05C057E0D52E72
:1014100002C049E0D42E2531310509F48DC02631B2
:101420003105A4F52430310509F467C025303105B4
:10143000A4F42130310509F465C02230310524F4CB
:10144000232B09F45CC020C12230310509F45DC0B2
:101450002330310509F018C15CC02231310509F48F
:101460005FC0233131054CF42A30310509F443C003
:101470002131310509F008C14FC02331310509F48C
:1014800053C02431310509F0FFC053C02035310568
:1014900009F48FC021353105ACF42533310509F449
:1014A0007EC0263331054CF42C31310509F447C098
:1014B0002E31310509F0E8C042C02C3331050CF063
:1014C000E3C072C02C35310509F47DC02D353105DE
:1014D0004CF42A35310509F470C02B35310509F07B
:1014E000D3C06EC02D35310509F48BC02E353105C2
:1014F00009F0CAC089C0B2E080C0E1E047C01092E4
:101500000B06C4C0C0920B06C1C082E080930B06DC
:10151000BDC0B0920B06BAC080E061E042E007C0F7
:1015200080E062E041E003C081E062E040E018DE7C
:10153000ADC0C0920D06AAC010920D06A7C0C8018A
:10154000B70120E030E040E251E40E94A1350E9462
:101550006F360E943B33F1E069317F0791F041E043
:101560006A3174072CF46851714009F08DC00BC0CA
:1015700081E06C32780749F06D52714009F084C007
:1015800009C0A4E035C0B3E038C0E5E02196EFAF74
:1015900021977CC0F6E02196FFAF219777C041E00C
:1015A00022964FAF229772C0822F865380932606D1
:1015B0006DC054E050930B0669C0C0920E0666C021
:1015C00010920E0663C0C801B70120E030E040E28F
:1015D00051E40E94A1350E946F360E943B3383E0A4
:1015E0006839780749F06959734009F04DC0A8E09F
:1015F0002196AFAF21974AC0B7E02196BFAF2197A0
:1016000045C0C0920C0642C010920C063FC0663026
:10161000710534F4633071055CF4772334F403C04E
:101620006E31710511F0DD2405C095E0D92E02C0A0
:1016300088E0D82E23303105E9F0243031054CF410
:101640002130310519F12230310584F4232B59F072
:101650001BC025303105A9F02530310574F02E313D
:10166000310591F403C0C0920F0610C082E0809350
:101670000F060CC0C092100609C0EFEFE0931006F1
:1016800005C01092100602C0B0920A06DD20D9F003
:10169000910102C0220F331FDA94E2F724968EAD37
:1016A0009FAD249782239323892B19F0A0920A06D9
:1016B0000AC024964EAD5FAD2497422B532B24963F
:1016C0005FAF4EAF2497C401B30126964EAD5FAD18
:1016D00026979201BADD892B09F03BCE80910A064C
:1016E000882309F0F3C51982772427961FAE279720
:1016F00028961FAE289750E829965FAF29976FEB81
:101700002A966FAF2A970F2EF0E02F2EF0E03F2E93
:10171000F0E04F2EF0E05F2EF02D2CAE3DAE4EAE41
:101720005FAE1BAE03E0802E912C8C0E9D1E5E01E1
:101730000894A11CB11C13E0C12EB6E0DB2ED7C06B
:101740001A811F3478F41D3408F0D1C01C3408F01D
:1017500066C0193408F04FC01634E9F0173409F0A8
:10176000C4C0C5C0143509F483C0153550F4123512
:1017700009F464C0133508F06BC0103509F0B5C02A
:1017800058C0193509F499C01A3509F4A2C01835A2
:1017900009F0ABC086C0EB80FC800D811E81C801C2
:1017A000B70120E030E040E050E00E94CC32181653
:1017B00014F0D0920A0680910C06882381F0C801AB
:1017C000B70128DD27966FAF279728967FAF289718
:1017D00029968FAF29972A969FAF2A9788C0C8016C
:1017E000B70118DD609312067093130680931406F8
:1017F000909315067CC06B817C818D819E810ADD72
:10180000E12FF0E0E954F040EE0FFF1FEE0FFF1F55
:10181000EA0DFB1D628B738B848B958B68C06B818B
:101820007C818D819E810E946F360E9440336BAF18
:101830005EC02B803C804D805E8059C06B817C8176
:101840008D819E81E7DC6CAF7DAF8EAF9FAF4FC0C7
:101850006B817C818D819E8120E030E040E050E012
:101860000E94CC3288230CF042C0D0920A063FC0BE
:10187000EB80FC800D811E81C801B70120E030E0C3
:1018800040E050E00E94CC32882314F4D0920A0643
:10189000C801B7010E946F360E9440336093220650
:1018A00026C06B817C818D819E81B4DC6F837887BB
:1018B00089879A8771E0772A1AC06B817C818D8134
:1018C0009E81A8DC6B877C878D879E8782E0782A43
:1018D0000EC06B817C818D819E819CDC6F87788BB3
:1018E000898B9A8B94E0792A02C0C0920A06CE01B5
:1018F0000296B40126964EAD5FAD26979501A5DC04
:10190000892B09F01DCFB72C27962FAD2797289646
:101910003FAD289729964FAD29972A965FAD2A9714
:10192000C901DA018FAB98AFA9AFBAAF80910A06AF
:10193000882309F0CBC42496AEADBFAD2497B1FF88
:1019400013C08E01015E1F4F80912606B8010E94D0
:101950007520882309F4B9C4A7E2B6E0F8018CE049
:1019600001900D928150E1F72196BFAD2197B430DF
:1019700009F469C1B53048F4B23079F1B33008F0F8
:10198000B6C0B13009F0B7C110C02196EFAD2197B4
:10199000E63009F458C1E63008F4A9C0E73009F48C
:1019A0005FC1E83009F0A7C19FC1C201B10120E0C9
:1019B00030E040E050E00E94CC32882324F486E0FE
:1019C00080930A0698C18091FB05873009F493C182
:1019D000C201B1010E947F048EC1FBADF23011F053
:1019E000F43149F4C201B1010E946F360E943B33C9
:1019F0006730710520F083E080930A067EC177206E
:101A000021F44BAD423009F42DC1161617062CF403
:101A10004B0108948108910804C080912606882E05
:101A20009924582C8E01015E1F4F882DB8010E9409
:101A30007520882309F449C4E6E1AE2EE6E0BE2E07
:101A400077E0C72ED12CCC0EDD1E780100E010E02F
:101A5000672C7724C301002E02C0959587950A94C0
:101A6000E2F780FF20C05BAD543199F4D5016D9150
:101A70007D918D919C91F60120813181428153812C
:101A80000E94F231D7016D937D938D939C931397B0
:101A90000AC0F60180819181A281B381F701808320
:101AA0009183A283B3830F5F1F4F44E050E0A40EE5
:101AB000B51EC40ED51EE40EF51E0330110551F6F9
:101AC0008E01015E1F4F852DB8010E946C20809110
:101AD000260690E08815990509F00FC1A7E2B6E047
:101AE000F8018CE001900D928150E1F706C177205A
:101AF00009F478C08E01095F1F4F66E1E62E66E0AB
:101B0000F62ECC24DD24A72CBB24C5010C2C02C04E
:101B1000959587950A94E2F780FF35C080910E066F
:101B20008823F9F0D70151966D917D918D919C910B
:101B300054975D962D913D914D915C9190970E94A7
:101B4000F3319B01AC01F801608171818281938145
:101B50000E94F331D8016D937D938D939C931397DD
:101B60001CC0F8016081718182819381D7012D9120
:101B70003D914D915C910E94F331F8016083718336
:101B8000828393830AC0F70180819181A281B3810E
:101B9000F80180839183A283B3830894C11CD11C74
:101BA0000C5F1F4F44E050E0E40EF51E53E0C516F5
:101BB000D10409F0AACF6F81788589859A852B8514
:101BC0003C854D855E85EF84F88809891A89A09047
:101BD0005106B0905206C0905306D0905406882407
:101BE0000E94D304BE01655D7F4F21968FAD219782
:101BF000853011F487E001C086E00E9475208823BB
:101C000009F463C36BA57CA58DA59EA52FA538A956
:101C100049A95AA9EBA8FCA80DA91EA9A090510694
:101C2000B0905206C0905306D090540688240E946B
:101C3000D304A6E1B6E0FE01BB968CE001900D92C4
:101C40008150E1F75AC021969FAD2197963011F44B
:101C500087E001C086E066E176E00E946C204BC020
:101C6000772021F486E080930A0648C006E116E05A
:101C700057E0C52ED12CCC0EDD1EEE24FF24A72C60
:101C8000BB24C5010E2C02C0959587950A94E2F7F6
:101C900080FF1CC0D8016D917D918D919C9113970F
:101CA00051962D913D914D915C9154970E94F23146
:101CB000F60120813181428153810E94F231D801A5
:101CC0005D966D937D938D939C9390970894E11C02
:101CD000F11C0C5F1F4FE4E0F0E0CE0EDF1EF3E0DE
:101CE000EF16F10471F609C08CE0E3E3F6E0DF01E2
:101CF0001D928A95E9F7B72C01C0BB242396BFAD8E
:101D00002397B2FD03C0BB2009F4CBC280910C061F
:101D1000882399F06FA978AD89AD9AAD20E030E0C5
:101D200040E050E00E94CC3288233CF480910B06C6
:101D3000843019F086E080930A062296EFAD229750
:101D4000EE2339F080910B06823018F086E0809304
:101D50000A0680910A06882309F0B8C28E01095F3D
:101D60001F4F46E1E42E46E0F42ECC24DD248B2CDC
:101D70009924C4010C2C02C0959587950A94E2F72A
:101D800080FF3BC02296FFAD2297FF2309F03FC0A2
:101D900080910E068823F9F0D70151966D917D91BF
:101DA0008D919C9154975D962D913D914D915C91B3
:101DB00090970E94F3319B01AC01F8016081718121
:101DC000828193810E94F331D8016D937D938D932D
:101DD0009C9313971CC0F80160817181828193816B
:101DE000D7012D913D914D915C910E94F331F80105
:101DF00060837183828393830AC0F701808191811C
:101E0000A281B381F80180839183A283B383089474
:101E1000C11CD11C0C5F1F4F44E050E0E40EF51EC6
:101E200053E0C516D10409F0A4CF80910B0684308D
:101E300048F4823008F05EC0882359F0813009F000
:101E400023C220C0843009F01FC2BB2009F41CC289
:101E500099C0BB2009F496C06F81788589859A85E1
:101E60002B853C854D855E85EF84F88809891A8924
:101E7000A0905106B0905206C0905306D0905406E0
:101E8000882435C0BB2009F47DC06F8178858985A1
:101E90009A852B853C854D855E85EF84F888098978
:101EA0001A8980900C068820A1F4A091120627962A
:101EB000AFAF2797B09113062896BFAF2897E09150
:101EC00014062996EFAF2997F09115062A96FFAFD1
:101ED0002A972796EFAD27972896FFAD2897299642
:101EE000AFAD29972A96BFAD2A975F016D010E9479
:101EF000D304CAC181E090E00090250602C0880F9B
:101F0000991F0A94E2F780958B21E1F16CAD7DADCC
:101F10008EAD9FAD20E030E040E050E00E94CC323A
:101F20008823A1F5E0912306F0E0EE0FFF1FEE0FEE
:101F3000FF1F8E010F5F1F4FE00FF11F6289738932
:101F40008489958920E030E040E050E00E94CC3266
:101F50008823E1F48091240690E0880F991F880F70
:101F6000991F080F191FD80152966D917D918D917F
:101F70009C91559720E030E040E050E00E94CC3248
:101F8000882321F486E080930A067EC16CAD7DAD86
:101F90008EAD9FAD20E030E040E050E00E94CC32BA
:101FA0008E010F5F1F4F882309F4F5C0E0912306CF
:101FB000F0E0EE0FFF1FEE0FFF1FD801AE0FBF1FA7
:101FC000EA5EF94F16966D917D918D919C911997CE
:101FD00020813181428153810E94F2311B012C0109
:101FE000E0912406F0E0EE0FFF1FEE0FFF1F0E0F33
:101FF0001F1FEA5EF94FD80116966D917D918D9164
:102000009C91199720813181428153810E94F23144
:102010003B014C018CE0FE017396DF011D928A9515
:10202000E9F76CAD7DAD8EAD9FAD20E030E040E8CE
:1020300050E40E94A1352CAD3DAD4EAD5FAD0E9488
:10204000A1357B018C01C201B101A20191010E9465
:10205000A1359B01AC01C801B7010E94F2317B019F
:102060008C01C401B301A40193010E94A1359B011D
:10207000AC01C801B7010E94F2317B018C0120E064
:1020800030E040E050E00E94CC32882324F484E029
:1020900080930A061BC1C801B7010E942E367B013E
:1020A0008C01C201B101A40193010E94DC349B01A7
:1020B000AC0117FB109517F91095C801B7010E94E4
:1020C000D3326B017C0180910B06833021F4F7FA47
:1020D000F094F7F8F0946CAD7DAD8EAD9FAD20E03F
:1020E00030E040E050E00E94CC3288236CF4F7FAF4
:1020F000F094F7F8F0944CAD5DAD6EAD7FAD7058D7
:102100004CAF5DAF6EAF7FAF00912306A02EBB2416
:10211000AA0CBB1CAA0CBB1C8E010F5F1F4FA00E8C
:10212000B11EC401B301A70196010E94A1359B0114
:10213000AC01C201B1010E94F23120E030E040E088
:102140005FE30E94A135D50152966D937D938D93E7
:102150009C9355978091240690E0880F991F880FD3
:10216000991F080F191FC201B101A70196010E9412
:10217000A1359B01AC01C401B3010E94F33120E001
:1021800030E040E05FE30E94A135F801628B738B81
:10219000848B958B23C0E0912306F0E0EE0FFF1FA8
:1021A000EE0FFF1FE00FF11F628973898489958903
:1021B0002091240630E0220F331F220F331F020F1D
:1021C000131FD80152962D913D914D915C915597D9
:1021D0000E94DC346CAF7DAF8EAF9FAF90910B0649
:1021E0002091230600912406E090250680900C069D
:1021F0008820A1F4B09112062796BFAF2797E091EF
:1022000013062896EFAF2897F09114062996FFAF92
:102210002997409115062A964FAF2A9700D000D0F3
:102220000F92EDB7FEB731964CAD5DAD6EAD7FADA3
:10223000ADB7BEB711964D935D936D937C93149794
:1022400080E0923009F481E0848386E196E0BE016B
:10225000695F7F4FAE014D5E5F4F27963FAD279779
:102260002896EFAD28972996FFAD29972A96AFAD0E
:102270002A97A32EBE2ECF2EDA2E0E9479050F901C
:102280000F900F900F900F9080910A068823F1F421
:10229000A6E1B6E0FE0137968CE001900D928150E8
:1022A000E1F780910F06882369F00E94842810923C
:1022B000090680910F06823019F40E94690402C059
:1022C00010920F0680910A0601C08AE0C75BDF4FBB
:1022D0000FB6F894DEBF0FBECDBFCF91DF911F9137
:1022E0000F91FF90EF90DF90CF90BF90AF909F90B5
:1022F0008F907F906F905F904F903F902F900895B8
:102300000F931F930AE016E085E3F80111928A9576
:10231000E9F780914D0690914E06A0914F06B0913D
:1023200050068093120690931306A0931406B09360
:10233000150680E061E042E00E94B00881E08093F1
:102340000E0680912606B801635E7F4F0E947520BD
:10235000882311F48AE0AAD71F910F910895FC01F8
:10236000808991898170907080932001089585E023
:1023700091E00C94443185E091E00C941D3185E0AE
:1023800091E00C949C3090E062E271E00C94CF36C6
:10239000CF93DF93909120019923B1F08091210197
:1023A000882391F489E491E060E071E00E94462B7B
:1023B00086E491E00E94462B85E291E00E94462B44
:1023C00081E08093210108C080912101882321F0C0
:1023D000992311F41092210185E091E00E940C30C4
:1023E000EC0105C085E091E00E944130EDD12197DC
:1023F0008FEFCF3FD807B1F785E091E00E94D03052
:102400000E94F72FDF91CF91089584B7877F84BF13
:1024100088E10FB6F89480936000109260000FBEC0
:1024200080E090E020E80FB6F8942093610080935C
:1024300061000FBE0E949A2C85E091E062E271E09B
:102440000E947D307894089510928A0110928B0139
:102450000895CF93DF938091FC05882309F452C03F
:102460008091FC05C82FD0E0CE0180769070892B3A
:10247000E1F086E08093FB05C6FF0FC08FEF0E945E
:10248000A41D81E0E9D68091FC058F7E8093FC0538
:102490008091FC0584FFFCCF03C08EEF0E94A41D39
:1024A0008091FC058F798093FC05C4FF04C081E016
:1024B0008093FA0527C0C0FF06C053D78091FC0562
:1024C0008E7F8093FC05C3FF06C084D28091FC05FB
:1024D000877F8093FC05C2FF06C086D28091FC05F1
:1024E0008B7F8093FC05C1FF0DC06BD2809162068B
:1024F00081FF03C081E0809309068091FC058D7FF8
:102500008093FC05DF91CF91089580E060E371E056
:102510000E94D320882369F080913001882359F0EC
:1025200080E391E00E94542B80E391E00E945109E6
:1025300001C08AE0BBD681E060E371E00E94D32055
:10254000882311F48AE0B2C680913001882349F0D3
:1025500080E391E00E94542B80E391E00E945109B6
:10256000A5C60895DF92EF92FF920F931F93DF931A
:10257000CF93CDB7DEB729970FB6F894DEBF0FBE65
:10258000CDBF7C01FC018081843209F002C181E071
:1025900089838181873479F1883470F48432B9F089
:1025A000853230F4882389F0833209F090C019C055
:1025B000833409F08CC028C08E3409F464C0883597
:1025C000D9F1883409F083C048C03ED6EDC082E01E
:1025D0008983F7018281882309F0E0C00E94471CAB
:1025E000E3C082E08983F7018281882309F0D6C0A5
:1025F0000E948B1BD9C082E08983F70182818823E6
:1026000009F0CCC0ABD7D0C082E08983F7018281CA
:10261000882309F0C3C08091FB05873021F40E9414
:10262000690485E007C0882309F0BAC087E0809379
:10263000FB0584E011D6B8C082E08983F70182816E
:10264000882309F0ABC08091FB05863009F0ACC04F
:1026500083E002D61092FB05A7C08091620684FD3C
:1026600002C017E0A2C08091FB05882319F08630D4
:1026700009F096C00E9423058091FA05882309F08D
:1026800093C043DF91C082E08983F7018281882370
:1026900019F0DD24D3941CC080E0B7010E94D32040
:1026A000882329F080E0B7010E94661B02C08AE0FF
:1026B000FDD581E0B7010E94D320882319F48AE078
:1026C000F5D572C081E0B7010E94661B6DC0DD24A4
:1026D000C7018E010F5F1F4FB801AE014E5F5F4F04
:1026E0000E94F028892B09F45DC09981F701E90F58
:1026F000F11D80818D3309F051C0892F8F5F89834F
:10270000DD2041F1482F50E02981822F90E0FC012B
:10271000E41BF50BEE0DFF1DD701A80FB91F8C911F
:1027200080838C912F5F2983882371F7C7010E94D2
:102730005109182F8823C9F56A817B818C819D817D
:102740000E946F360E944033DC01CB01B7010E942A
:10275000CA202BC0C701B801AE014A5F5F4F0E947B
:10276000F028892BF9F08981E80EF11CF7018081AE
:102770008823A1F46A817B818C819D810E943B33F7
:10278000DC01CB014E815F81688579850E94761ED0
:1027900003C0C7010E945109182F07C013E005C0EC
:1027A0001BE003C011E001C010E0812F29960FB695
:1027B000F894DEBF0FBECDBFCF91DF911F910F9177
:1027C000FF90EF90DF900895982F8132A1F0823230
:1027D00018F48831B1F413C08F3319F08E3789F4AF
:1027E00004C08091FC05816003C08091FC0582607B
:1027F0008093FC0508958091FC058860F9CF0C94C6
:1028000069049A3011F09D30A1F423DE8091FA051D
:10281000882309F03BC0E0918A01EE2341F0F0E00B
:10282000E05DFE4F108280E391E09CDE1AC080E004
:1028300018C080918B01882329F0993239F51092C4
:102840008B010895913210F19F3201F1983221F4F9
:1028500081E080938B01089520918A01293518F039
:102860008DE024D5F1CD892F8156E22FF0E02F5F46
:102870008A3138F4E05DFE4F9052908320938A01B4
:102880000895E05DFE4F908320938A010895DCDD7A
:10289000DFC48091620682FF02C0299A01C0299894
:1028A0008091FB05833081F4809155068093B301BC
:1028B00080914C06880F845081958093B20180915D
:1028C0006F00826080936F0008951F920F920FB681
:1028D0000F9211248F939F939BB18091550686711F
:1028E000997E892B8BB915BC9F918F910F900FBE4C
:1028F0000F901F9018959B01AC01203283E03807A0
:1029000080E0480780E0580720F420E233E040E010
:1029100050E060E070E788E399E30E94AD36C901BA
:10292000DA01803020E0920721E0A20720E0B20720
:1029300030F4BC019C0140E050E091E02FC08030B9
:1029400020E0920728E0A20720E0B207A0F4F3E01D
:10295000B695A79597958795FA95D1F7BC019C01F7
:1029600040E050E0E3E0220F331F441F551FEA957B
:10297000D1F792E013C026E0B695A7959795879575
:102980002A95D1F7BC019C0140E050E086E0220F7F
:10299000331F441F551F8A95D1F793E08091810022
:1029A000887F982B909381007093890060938800B2
:1029B0002093A0013093A1014093A2015093A30161
:1029C00008958091FB05823021F483E08093FB051C
:1029D00060CF08958091FB05833029F484E08093D3
:1029E000FB05109209060895E091B001F091B10144
:1029F0003097B9F1658576858785908920919C010E
:102A000030919D0140919E0150919F01621B730B7B
:102A1000840B950B0E94A2241092A8011092A90188
:102A20001092AA011092AB0160E070E080E090E0AB
:102A300062DF80E091E7A2E0B0E08093A401909390
:102A4000A501A093A601B093A70110929C0110923A
:102A50009D0110929E0110929F0182E08093FB05E0
:102A600008951092FB05089584E2ECE8F1E0DF019F
:102A70001D928A95E9F760E273E080E090E03BDF29
:102A80001092B1011092B0011092B401089580919A
:102A90006F008D7F80936F00909172069F3F21F4AD
:102AA0008091FC0585FF0BC0892F90E00E94AA2829
:102AB0008091620682FF02C029980895299A08959C
:102AC0008AB18F698AB98BB1807690915506892B2E
:102AD0008BB9219AE1E8F0E080818F7E808380814C
:102AE00088608083E0E8F0E080818D7F8083808152
:102AF0008E7F808380818F73808380818F7C8083B1
:102B000014BC15BCEEE6F0E0808181608083C1DEFC
:102B1000BECF1F920F920FB60F921124EF92FF9229
:102B20000F931F932F933F934F935F936F937F93D5
:102B30008F939F93AF93BF93CF93DF93EF93FF93C5
:102B40008091B401882309F068C39BB12091B3013F
:102B5000822F89789677892B8BB98BB1897E822BCE
:102B60008BB98091B20186BD82E085BD81E0809302
:102B7000B40178948091B0019091B101892B09F052
:102B80007DC00E944521EC019093B1018093B0017A
:102B9000009709F46DC08091FB058330C9F46BA1E7
:102BA0007CA18DA19EA16093A8017093A90180933F
:102BB000AA019093AB019FDE80E091E7A2E0B0E034
:102BC0008093A4019093A501A093A601B093A701BF
:102BD0002BA53CA54DA55EA5DA01C901B595A79524
:102BE00097958795820F931FA41FB51F8093AC0103
:102BF0009093AD01A093AE01B093AF012D853E85BA
:102C00004F855889DA01C901B595A795979587959C
:102C1000B095A095909581959F4FAF4FBF4F8093F2
:102C20008C0190938D01A0938E01B0938F018093BE
:102C3000900190939101A0939201B093930180939E
:102C4000940190939501A0939601B09397012093DE
:102C500098013093990140939A0150939B011092EF
:102C60009C0110929D0110929E0110929F0106C03E
:102C70000EDF8091FC0584608093FC05E091B0013B
:102C8000F091B101309709F4BFC220812093B301C4
:102C900040918C0150918D0160918E0170918F0156
:102CA00081819281A381B481480F591F6A1F7B1FC4
:102CB00040938C0150938D0160938E0170938F012E
:102CC0001416150616061706C4F524602093B301E2
:102CD0008091980190919901A0919A01B0919B01E6
:102CE000481B590B6A0B7B0B40938C0150938D0151
:102CF00060938E0170938F0123FF0CC08091FD05BE
:102D00009091FE05A091FF05B09100060197A109E1
:102D1000B1090BC08091FD059091FE05A091FF05C2
:102D2000B09100060196A11DB11D8093FD05909301
:102D3000FE05A093FF05B0930006409190015091CD
:102D40009101609192017091930185819681A78193
:102D5000B085480F591F6A1F7B1F40939001509305
:102D60009101609392017093930114161506160653
:102D70001706D4F52091B30122602093B30180910E
:102D8000980190919901A0919A01B0919B01481BE3
:102D9000590B6A0B7B0B4093900150939101609308
:102DA00092017093930120FF0CC0809101069091D5
:102DB0000206A0910306B09104060197A109B1098A
:102DC0000BC08091010690910206A0910306B0917C
:102DD00004060196A11DB11D809301069093020681
:102DE000A0930306B093040640919401509195017D
:102DF000609196017091970181859285A385B48534
:102E0000480F591F6A1F7B1F4093940150939501EF
:102E1000609396017093970114161506160617060F
:102E2000D4F52091B30120612093B30180919801E2
:102E300090919901A0919A01B0919B01481B590B67
:102E40006A0B7B0B4093940150939501609396011C
:102E50007093970127FF0CC080910506909106069C
:102E6000A0910706B09108060197A109B1090BC00E
:102E70008091050690910606A0910706B09108067C
:102E80000196A11DB11D8093050690930606A0939F
:102E90000706B093080620919C0130919D01409156
:102EA0009E0150919F012F5F3F4F4F4F5F4F2093E7
:102EB0009C0130939D0140939E0150939F01858515
:102EC0009685A785B089281739074A075B0708F058
:102ED00095C18091FB05843009F05AC02091A00172
:102EE0003091A1014091A2015091A3018091A401D0
:102EF0009091A501A091A601B091A701280F391FBB
:102F00004A1F5B1F2093A4013093A5014093A601A3
:102F10005093A701213002EE300704E0400700E0A3
:102F2000500708F471C12050324E44405040209365
:102F3000A4013093A5014093A6015093A7012091CD
:102F4000A8013091A9014091AA015091AB0163A55C
:102F500074A585A596A5621773078407950738F0B1
:102F600096DD8091FC0584608093FC054DC179015C
:102F70008A01E61AF70A080B190BC801B701E0929B
:102F8000A801F092A9010093AA011093AB016CC0B3
:102F900087A590A9A1A9B2A9281739074A075B07F5
:102FA00008F064C02091A0013091A1014091A201DC
:102FB0005091A3018091A4019091A501A091A60137
:102FC000B091A701280F391F4A1F5B1F2093A4014E
:102FD0003093A5014093A6015093A701213002EE42
:102FE000300704E0400700E0500708F40DC120500E
:102FF000324E444050402093A4013093A5014093A9
:10300000A6015093A70183A594A5A5A5B6A52091D7
:10301000A8013091A9014091AA015091AB01820F02
:10302000931FA41FB51F8093A8019093A901A0939B
:10303000AA01B093AB0127A930AD41AD52AD8217C3
:103040009307A407B50740F02093A8013093A90186
:103050004093AA015093AB016091A8017091A9011E
:103060008091AA019091AB0146DCCEC083A994A9BE
:10307000A5A9B6A9281739074A075B0708F4A2C013
:10308000281739074A075B0779F52091A801309185
:10309000A9014091AA015091AB0187A990ADA1ADC2
:1030A000B2AD281739074A075B0729F480E091E79A
:1030B000A2E0B0E010C080E092EEA4E0B0E0209189
:1030C000A4013091A5014091A6015091A701821B56
:1030D000930BA40BB50B8093A4019093A501A0932F
:1030E000A601B093A70190C02091A0013091A10149
:1030F0004091A2015091A3018091A4019091A5015A
:10310000A091A601B091A701280F391F4A1F5B1F8C
:103110002093A4013093A5014093A6015093A701E9
:10312000213012EE310714E0410710E0510708F496
:103130006BC02050324E444050402093A401309345
:10314000A5014093A6015093A7012091A8013091B9
:10315000A9014091AA015091AB018091AC019091DD
:10316000AD01A091AE01B091AF0182179307A40702
:10317000B50748F483A594A5A5A5B6A5281B390BCA
:103180004A0B5B0B04C056954795379527952093BE
:10319000A8013093A9014093AA015093AB0127A144
:1031A00030A541A552A58091A8019091A901A091B7
:1031B000AA01B091AB0182179307A407B50708F0E5
:1031C0004BCF42CF27A930AD41AD52AD8091A80180
:1031D0009091A901A091AA01B091AB018217930728
:1031E000A407B50789F02093A8013093A901409363
:1031F000AA015093AB01CA01B90136CF1092B101B7
:103200001092B0010E9439218091B301909155062E
:1032100089278093B3011092B401FF91EF91DF9160
:10322000CF91BF91AF919F918F917F916F915F915E
:103230004F913F912F911F910F91FF90EF900F9021
:103240000FBE0F901F90189581EC94E00C94462BC4
:103250008FEE95E00C94462B1F93182F89E596E08E
:103260000E94462B133091F0143028F4113041F0B5
:103270001230B1F408C0143061F0153089F40CC07C
:1032800087E496E00BC083E396E008C081E296E015
:1032900005C089E196E002C080E196E00E94462BDD
:1032A0008CE096E00E94462B1F9108951F93182FE3
:1032B000882319F482E897E050C08AE797E00E94DB
:1032C000462B173091F1183070F4133011F114308F
:1032D00028F41130C1F01230F1F518C01530F9F0B2
:1032E000163000F519C01A3049F11B3028F4183097
:1032F000F9F0193081F51FC01C3031F11C3008F194
:103300001D3049F524C088E697E023C080E597E0AA
:1033100020C08AE397E01DC08BE297E01AC085E1E8
:1033200097E017C083E097E014C082EF96E011C0E9
:1033300086EE96E00EC087ED96E00BC086EB96E039
:1033400008C087EA96E005C08CE996E002C08EE8E6
:1033500096E00E94462B8BE896E00E94462B1F9138
:103360000895AF92BF92CF92DF92EF92FF920F93A8
:103370001F93DF93CF93CDB7DEB768970FB6F8945E
:10338000DEBF0FBECDBFDE011196EDEFF5E08CE0A4
:1033900001900D928150E1F78091FB058430C9F0D6
:1033A000853038F4823079F0833080F4882341F01E
:1033B0001DC08630A1F0863078F08730B9F412C095
:1033C0008BE891E011C084E891E00EC08FE791E0B6
:1033D0000BC089E791E008C083E791E005C08CE667
:1033E00091E002C085E691E00E94462B8EE591E0D7
:1033F0000E94462B8DE0E82EF12CEC0EFD1E67019D
:1034000000E010E05E010894A11CB11CF501E00F82
:10341000F11F60817181828193810E946E33F80176
:10342000E15CF94F20813181428153810E94D33286
:103430009B01AC01F6016083718382839383809149
:10344000620680FF0DC0CA01B9012BE832E441E2F7
:103450005DE30E94A135F6016083718382839383CB
:10346000F60161917191819191916F010E94F6290C
:103470008CE591E00E94462B0C5F1F4F0C3011052C
:1034800029F686E591E00E94462B07E216E0DD244E
:103490008091620680FF1BC0F8016081718182818A
:1034A000938124853585468557850E94F3312BE825
:1034B00032E441E25DEB0E94A1359B01AC01F701D2
:1034C00060817181828193810E94F33114C0F8017F
:1034D00060817181828193812485358546855785F8
:1034E0000E94F3319B01AC01F701608171818281FF
:1034F00093810E94F231F701608371838283938309
:10350000F70160817181828193810E94F629F2E046
:10351000DF1621F084E591E00E94462BD39484E0ED
:1035200090E0E80EF91E0C5F1F4F93E0D91609F0EA
:10353000AFCF80E591E00E94462B68960FB6F894D5
:10354000DEBF0FBECDBFCF91DF911F910F91FF90D6
:10355000EF90DF90CF90BF90AF90089580910B06D1
:10356000823091F0833028F4882341F08130B1F427
:1035700008C0833061F0843089F40CC08CEF91E096
:103580000BC088EF91E008C084EF91E005C080EFA8
:1035900091E002C08BEE91E00E94462B88EE91E014
:1035A0000E94462B6091260670E06A5C7F4F882758
:1035B00077FD8095982F0E94A72A80912306882363
:1035C00051F480912406813019F483EE91E005C016
:1035D0008EED91E002C089ED91E00E94462B809132
:1035E0000D06882319F084ED91E002C08FEC91E084
:1035F0000E94462B80910E06882319F08AEC91E0F8
:1036000002C085EC91E00E94462B80910C06882335
:1036100019F080EC91E002C08BEB91E00E94462B08
:1036200080910F06813041F0813018F0823059F4DA
:1036300006C087EB91E005C083EB91E002C08FEA02
:1036400091E00E94462B80911006882359F081302A
:1036500019F08F3F59F403C08BEA91E005C087EA67
:1036600091E002C083EA91E00E94462B80EA91E05B
:103670000E94462B6091220670E080E090E00E945C
:10368000A72A8DE991E00E94462B80910D068823A0
:1036900079F0609112067091130680911406909152
:1036A00015062BE832E441E25DE30E94A13508C033
:1036B0006091120670911306809114069091150680
:1036C0000E94F62989E991E00C94462BCF92DF9273
:1036D000EF92FF920F931F93E82E6B0186E991E022
:1036E0000E94462BFF2400E010E0C801B7010E94B1
:1036F000A72A84E991E00E94462BC6010E94542B20
:1037000081E991E00E94462B1F910F91FF90EF906D
:10371000DF90CF900895CF92DF92EF92FF920F93B8
:103720001F93DF93CF93CDB7DEB72C970FB6F894E6
:10373000DEBF0FBECDBFFF246E010894C11CD11C9B
:103740008F2DB601D2D4882319F48AE0AFDD90C062
:1037500082E392E00E94462B83E0F816E9F08F1591
:1037600030F0E1E0FE1691F0EF1598F00CC0F5E0B6
:10377000FF16C1F0FF1698F086E0F816B1F0E7E00A
:10378000FE16D1F415C08EE292E014C08AE292E0F7
:1037900011C086E292E00EC082E292E00BC08EE1A0
:1037A00092E008C08AE192E005C086E192E002C0A2
:1037B00082E192E00E94462B8601EE24809162060F
:1037C00080FF0CC0F80160817181828193812BE8B8
:1037D00032E441E25DE30E94A13505C0F801608159
:1037E0007181828193810E94F629F2E0EF1619F02F
:1037F00080E192E002C08CE092E00E94462BE394CC
:103800000C5F1F4F83E0E816C9F6F394E8E0FE165C
:1038100009F096CF86E092E00E94462B03E316E083
:10382000FF248091620680FF0CC0F80160817181E5
:10383000828193812BE832E441E25DE30E94A1356D
:1038400005C0F80160817181828193810E94F6290F
:10385000F2E0FF1619F084E092E002C080E092E00E
:103860000E94462BF3940C5F1F4F83E0F816C9F6B5
:103870002C960FB6F894DEBF0FBECDBFCF91DF916F
:103880001F910F91FF90EF90DF90CF9008958DEBF7
:1038900094E00E94462B60913F0670914006809113
:1038A0004106909142060E94F6298AEA94E00E941D
:1038B000462B609143067091440680914506909195
:1038C00046060E94F62987E994E00E94462B609103
:1038D0004706709148068091490690914A060E94D9
:1038E000F62984E894E00E94462B60914C0670E033
:1038F00080E090E00E94A72A8BE694E00E94462B8D
:1039000060914D0670914E0680914F069091500641
:103910000E94F6298EE494E00E94462B60915106A5
:103920007091520680915306909154060E94F62998
:1039300081E394E00E94462B6091550670E080E0A0
:1039400090E00E94A72A83E194E00E94462B809198
:1039500055060E94152B8CE094E00E94462B609146
:10396000720670E080E090E00E94A72A8EEE93E05D
:103970000E94462B60915A0670915B0680915C060E
:1039800090915D0620E030E041E655E40E94D3329C
:103990000E94F6298FEC93E00E94462B60915E0610
:1039A00070915F0680916006909161060E94F629F1
:1039B0008FEA93E00E94462B60915606709157065D
:1039C00080915806909159060E94F62986E993E065
:1039D0000E94462B6091740670E080E090E00E94A7
:1039E000A72A87E793E00E94462B6091730670E058
:1039F00080E090E00E94A72A8EE593E00E94462B8B
:103A00006091620670E080E090E06170707080709C
:103A100090700E94A72A81E493E00E94462B609157
:103A2000620670E07695679580E090E06170707056
:103A3000807090700E94A72A87E293E00E94462B34
:103A40006091620670E0769567957695679580E05F
:103A500090E061707070807090700E94A72A85E07D
:103A600093E00E94462B6091620670E023E0769519
:103A700067952A95E1F780E090E061707070807042
:103A800090700E94A72A8AEE92E00E94462B6091D5
:103A9000620670E094E0769567959A95E1F780E08C
:103AA00090E061707070807090700E94A72A8EEC18
:103AB00092E00E94462B6091630670E080E090E007
:103AC0000E94A72A8FEA92E00E94462B809163060B
:103AD0000E94152B87EA92E00E94462B60916406B3
:103AE0007091650680916606909167060E94F6299E
:103AF0008AE892E00E94462B609168067091690600
:103B000080916A0690916B060E94F6298DE692E0FC
:103B10000E94462B60916C0670916D0680E090E0EB
:103B20000E94A72A8EE492E00E94462B60916E06C6
:103B300070916F0680917006909171060E94F6292F
:103B400085E392E00C94462B1F93182F83E896E0B0
:103B50000E94462B1E3F29F01F3F39F488E796E06C
:103B600002C085E696E00E94462B8BE596E00E9417
:103B7000462B84EF91E00E94AA281F910895F9999D
:103B8000FECF92BD81BD81E08FBB80B50895F894D2
:103B9000F999FECF92BD81BD81E08FBB90B596278C
:103BA000892F862339F06F3F19F060BD84E006C08D
:103BB00084E104C0992321F060BD84E28FBBF99AAF
:103BC000789408958F929F92AF92BF92CF92DF9296
:103BD000EF92FF920F93DF93CF9300D0CDB7DEB774
:103BE0005C016B017A014A0100E01DC0002319F05D
:103BF00021E030E008C0202F332727FD3095222711
:103C0000330F221F3327F60161916F01062F020F38
:103C10009C012F5F3F4F3A832983B9DF08948108C5
:103C2000910889819A818114910401F7C7018A0D55
:103C30009B1D602FACDF0F900F90CF91DF910F9104
:103C4000FF90EF90DF90CF90BF90AF909F908F90BC
:103C500008958F929F92AF92BF92CF92DF92FF9280
:103C60000F931F93CF93DF934C015B016A018B018C
:103C7000EA01FF2417C0C80182DFFF2019F021E00C
:103C800030E008C02F2D332727FD30952227330F32
:103C9000221F33270F5F1F4FF82EF20EF40181937E
:103CA0004F012197209739F7C6018A0D9B1D67DFC9
:103CB00020E030E0F81611F421E030E0C901DF9196
:103CC000CF911F910F91FF90DF90CF90BF90AF9059
:103CD0009F908F90089580E090E065E058DF81E04C
:103CE00090E06FE376E046E350E06CCFEF92FF9216
:103CF0000F931F93CF93DF93EC017A018B01FC01AB
:103D00008731910540F4EA5AFF4FEE0FFF1F0590EF
:103D1000F491E02D099486E01EC1CB01BA0120E0A8
:103D200030E040E050E00E94CC32181614F088E0F9
:103D300012C1CC0FDD1FCC0FDD1FC15CD94FE88253
:103D4000F9820A831B8305C1CB01BA0120E030E070
:103D500040E450E40E94CC32882314F489E0FBC094
:103D6000C801B7010E9404360E94403360934C069C
:103D7000F0C040934D0650934E0660934F067093EB
:103D80005006E7C040935106509352066093530685
:103D900070935406DEC0CB01BA010E946F360E94B8
:103DA000403360935506D5C0CB01BA010E9404365A
:103DB0000E94403360937206CCC0CB01BA0120E070
:103DC00030E040E752E40E94A13520E030E040E7D7
:103DD00052E40E94A13560935A0670935B0680936B
:103DE0005C0690935D06B5C0DB01CA01BF77809386
:103DF0005E0690935F06A0936006B0936106A9C02B
:103E00004093560650935706609358067093590690
:103E1000A0C0CB01BA010E9404360E9440336093D7
:103E2000740697C0CB01BA010E9404360E94403349
:103E3000609373068EC0CB01BA0120E030E040E011
:103E400050E00E94CC32882321F08091620681608C
:103E500011C0809162068E7F0DC0CB01BA0120E0B7
:103E600030E040E050E00E94CC32882331F0809175
:103E700062068260809362066CC0809162068D7FCC
:103E8000F9CFCB01BA0120E030E040E050E00E94E1
:103E9000CC32882321F0809162068460EBCF809140
:103EA00062068B7FE7CFCB01BA0120E030E040E033
:103EB00050E00E94CC32882321F080916206886015
:103EC00003C080916206877F809362060E94AB29BF
:103ED00040C0CB01BA0120E030E040E050E00E9459
:103EE000CC32882321F0809162068061C3CF80911B
:103EF00062068F7EBFCFCB01BA010E946F360E944F
:103F000040336093630625C0409364065093650672
:103F100060936606709367061CC0409368065093D2
:103F2000690660936A0670936B0613C0CB01BA01F1
:103F30000E9404360E94403370936D0660936C06B5
:103F400008C040936E0650936F066093700670939E
:103F50007106C1DE80E0DF91CF911F910F91FF903C
:103F6000EF900895882309F45AC080E090E0AAE712
:103F7000B3E480933F0690934006A0934106B0932C
:103F800042068093430690934406A0934506B0935F
:103F900046068093470690934806A0934906B0933F
:103FA0004A062AE020934C0680934D0690934E06D5
:103FB000A0934F06B093500680E090E0AAEFB3E4E0
:103FC0008093510690935206A0935306B0935406E3
:103FD00080E090EAACE0B7E480935A0690935B06E9
:103FE000A0935C06B0935D068DEC9CECACECBDE35D
:103FF0008093560690935706A0935806B09359069F
:1040000081E8809355068DEC9CECACE4BDE3809395
:104010005E0690935F06A0936006B093610682E00F
:10402000809362061092630680E090E0A8ECB1E411
:104030008093640690936506A0936606B093670626
:1040400080E090E0AAE7B3E4809368069093690665
:10405000A0936A06B0936B0684E690E090936D0699
:1040600080936C0680E090E0A0E8BFE380936E064A
:1040700090936F06A0937006B093710699E19093A8
:10408000720683E0809373069093740624CE80E0DA
:1040900090E075DD853071F48FE396E061E070E0CB
:1040A00046E350E0D6DD20E0892B09F421E081E0F1
:1040B000282710C0853068F48FE396E061E070E057
:1040C00043E250E0C6DD892B21F080E04BDF21E0A8
:1040D00001C020E0822F08959DE0899FC001112436
:1040E00080509E4F4CE050E06DCDFF920F931F9398
:1040F000F82E162F072F6DE0869FB0011124605017
:104100007E4F812F902F4CE050E0A3DD892B11F0E2
:1041100081E00CC0E12FF02F8CE0DF011D928A9529
:10412000E9F78F2D612F702FD7DF80E01F910F915E
:10413000FF900895EF92FF921F93DF93CF93CDB737
:10414000DEB72C970FB6F894DEBF0FBECDBF9FDF52
:10415000882329F48AE0AAD881E004DF98DB10E004
:104160007E010894E11CF11C812FB701BEDF88237A
:1041700011F48AE09BD81F5F1830B1F72C960FB668
:10418000F894DEBF0FBECDBFCF91DF911F91FF909E
:10419000EF9008959BE5899FC001112480509D4FA9
:1041A0004AE550E00FCD1F93CF93DF93182FEB011B
:1041B0006BE5869FB001112460507D4FCE014AE52A
:1041C00050E047DD892B11F081E005C01882812F76
:1041D000BE01E0DF80E0DF91CF911F9108958F5FF6
:1041E000823109F480E008956F927F928F929F92BE
:1041F000AF92BF92CF92DF92EF92FF920F931F93F5
:104200003B014C01CA01B9010E94A1355B016C015F
:10421000C401B301A40193010E94A1359B01AC012B
:10422000C601B5010E94F2315B016C01C801B70102
:10423000A80197010E94F3319B01AC01C601B501B1
:104240000E94D3321F910F91FF90EF90DF90CF909B
:10425000BF90AF909F908F907F906F9008958091C6
:10426000DB058093DC058091DB05B9DF8093DD05FC
:1042700008959091DB058091DC05981729F08091D5
:10428000DC05ADDF8093DC0508959091DB0580911E
:10429000DC05981719F420E030E008C09091DC05A7
:1042A0008BE3989F900111242B543E4FC901089530
:1042B0009091DC0520E08091DD05981709F421E05C
:1042C000822F0895EF92FF920F931F936093DE0564
:1042D0007093DF058093E0059093E1052093E2055C
:1042E0003093E3054093E4055093E505E092E6053D
:1042F000F092E7050093E8051093E9051F910F91EF
:10430000FF90EF9008956F927F928F929F92AF925D
:10431000BF92CF92DF92EF92FF920F931F935B01B8
:104320006C01CA01B9010E94A1353B014C01C601D3
:10433000B50120E030E040E050EC0E94A135A8013A
:1043400097010E94A1359B01AC01C401B3010E94F9
:10435000F3310E942E361F910F91FF90EF90DF9066
:10436000CF90BF90AF909F908F907F906F90089567
:104370004F925F926F927F928F929F92AF92BF9275
:10438000CF92DF92EF92FF920F931F93CF93DF9321
:10439000EC012B01009709F45AC08AA1882309F087
:1043A00056C0AD88BE88CF88D88CFB0165887688DA
:1043B0008788908CC601B501A40193010E94CC327C
:1043C00088230CF044C060915A0670915B0680917E
:1043D0005C0690915D069058ED8CFE8C0F8D18A1B7
:1043E000A601950190DF9B01AC01C401B3010E94BD
:1043F000CC32882334F4F201E588F6880789108DE1
:1044000014C060915A0670915B0680915C06909191
:104410005D0690582D893E894F89588DED8CFE8C14
:104420000F8D18A170DF7B018C01F20165897689FF
:104430008789908DA80197010E94CC32882339F09A
:10444000F201E58AF68A078B108F81E081A3DF9164
:10445000CF911F910F91FF90EF90DF90CF90BF9081
:10446000AF909F908F907F906F905F904F90089546
:104470002F923F924F925F926F927F928F929F9274
:10448000AF92BF92CF92DF92EF92FF920F931F9362
:10449000DF93CF93CDB7DEB72E970FB6F894DEBF7C
:1044A0000FBECDBF9E878D876A017B011801290150
:1044B000DC01D7966D917D918D919C91DA970E9448
:1044C0006C333B014C01A70196010E94A1350E946B
:1044D000B9320E9440337B018C01ED85FE8563A3D8
:1044E00074A385A396A3C401B301A20191010E9404
:1044F000A1350E94B9320E9440331B012C01AD85C9
:10450000BE8597966D937D938D939C939A979B967A
:104510006D917D918D919C919E9722E330E040E0DA
:1045200050E00E948E360E946E3320E030E040E77B
:1045300052E40E94A1350E943B335B016C01C8012B
:10454000B7010E946C3369877A878B879C87C60185
:10455000B5010E946E336D837E838F839887698552
:104560007A858B859C85A4019301ED80FE800F8167
:1045700018853ADE0E94B9320E943B3369837A8300
:104580008B839C83C201B1010E946C331B012C01FF
:10459000D094C094B094A094A11CB11CC11CD11C97
:1045A000C601B5010E946E337B018C01C401B301C9
:1045B000A201910119DE0E94A933ED85FE85A58433
:1045C000B684C784D0888601750129813A814B81E0
:1045D0005C81E21AF30A040B150B0E943B33E61AC6
:1045E000F70A080B190B17FF63C06D817E818F815D
:1045F00098859B01AC010E94F3317B018C01C601BF
:10460000B5010E946E339B01AC01C801B7010E9445
:10461000A1357B018C0169857A858B859C859B0101
:10462000AC010E94A1359B01AC01C801B7010E94F9
:10463000F2317B018C01C201B101A20191010E9402
:10464000A1359B01AC01C801B7010E94F3317B0188
:104650008C016D817E818F81988520E030E040E87B
:1046600050E40E94A1359B01AC01C801B7010E9432
:10467000D3320E94B9320E943B33AC01CB01DA0144
:10468000BC01CD0197FF04C060E070E080E090E0E5
:1046900069837A838B839C83A616B706C806D906DE
:1046A00024F4A982BA82CB82DC82EE24FF24870123
:1046B00089819A81AB81BC81ED85FE8587A790AB0E
:1046C000A1ABB2ABE80EF91E0A1F1B1FAD85BE855C
:1046D000D396ED92FD920D931C93D6972E960FB61E
:1046E000F894DEBF0FBECDBFCF91DF911F910F9128
:1046F000FF90EF90DF90CF90BF90AF909F908F9002
:104700007F906F905F904F903F902F9008952F92E1
:104710003F924F925F926F927F928F929F92AF9251
:10472000BF92CF92DF92EF92FF920F931F93CF939E
:10473000DF933090DB0544245524C0E0D0E03BE318
:10474000232E6EC0332011F422E1322E3A942097AA
:1047500009F45FC04114510409F45BC0A98CBA8C00
:10476000CB8CDC8C6D897E898F89988DA601950113
:104770000E94CC32882309F44CC08AA1882309F016
:1047800042C0F201658876888788908CC601B501A1
:10479000A40193010E94CF341816ACF560915A061B
:1047A00070915B0680915C0690915D069058ED8C4F
:1047B000FE8C0F8D18A1A4019301A5DD9B01AC0116
:1047C000C601B5010E94CC3288232CF4698D7A8D04
:1047D0008B8D9C8D13C060915A0670915B06809101
:1047E0005C0690915D069058F201258936894789CB
:1047F000508DED8CFE8C0F8D18A185DD6D8B7E8B21
:104800008F8B988F04C0AD8ABE8ACF8AD88EF1E094
:10481000F9A3329CC00111242E01EC01CB54DE4FD0
:104820008091DC05381609F08DCFF090DC0520E092
:1048300030E0C0E0D0E09BE3E92E0EC0FE9C80019A
:1048400011240B541E4FC901BE01A80191DD8F2D0B
:10485000C6DCF82E9E01E8018091DB05F81671F7A1
:10486000C901BE0140E050E083DD7090DC05C0E08E
:10487000D0E08BE3682E32C0769C4001112485EB9A
:1048800091E0880E991E209729F189A1882321F4AF
:10489000F40181A18823F1F0E988FA880B891C8949
:1048A0006D897E898F89988DA80197010E94D332E6
:1048B0005B016C01F401658976898789908DA80177
:1048C00097010E94D3328B019C01CE01B601A50154
:1048D000CFDD19A2872D83DC782EE4018091DB05E2
:1048E000781651F6E988FA880B891C896D897E89CA
:1048F0008F89988DA80197010E94D3325B016C01CA
:1049000060E070E080E090E0A80197010E94D3325F
:104910008B019C01CE01B601A501AADD19A2DF9190
:10492000CF911F910F91FF90EF90DF90CF90BF90AC
:10493000AF909F908F907F906F905F904F903F903F
:104940002F900895AF92BF92CF92DF92EF92FF9295
:104950000F931F93CF93DF935B016C019091DC0564
:104960008BE3989FE0011124CB54DE4FC601B501C3
:104970000E946E332D8D3E8D4F8D58A10E94A13522
:104980007B018C016D857E858F8598890E946E33B1
:104990009B01AC01C801B7010E94D3326D8F7E8F9D
:1049A0008F8F98A3AD86BE86CF86D88A80E090E0B0
:1049B000A0E0B0E08D8B9E8BAF8BB88F898F9A8FE4
:1049C000AB8FBC8F1AA281E089A3A1DEDF91CF91CA
:1049D0001F910F91FF90EF90DF90CF90BF90AF901D
:1049E00008952F923F924F925F926F927F928F9293
:1049F0009F92AF92BF92CF92DF92EF92FF920F936E
:104A00001F93DF93CF93CDB7DEB7AF970FB6F89470
:104A1000DEBF0FBECDBF29013A01ADA2BEA2CFA21B
:104A2000D8A689A63091DB052BE3329F1001112413
:104A300025EB31E0220E331E20913F0630914006D7
:104A400040914106509142060E94A1350E94713565
:104A500069837A838B839C83C301B20120914306CF
:104A60003091440640914506509146060E94A1357A
:104A70000E9471356D837E838F839887C801B7014B
:104A800020914706309148064091490650914A06C8
:104A90000E94A1350E94713569877A878B879C8730
:104AA000D1011C9229813A814B815C818091DE0584
:104AB0009091DF05A091E005B091E1052817390735
:104AC0004A075B071CF488E0F10180832D813E8159
:104AD0004F8158858091E2059091E305A091E4050E
:104AE000B091E505281739074A075B0724F4D1017F
:104AF0008C9181608C9329853A854B855C8580916A
:104B0000E6059091E705A091E805B091E905281721
:104B100039074A075B0724F4F101808180688083AC
:104B200029813A814B815C818091DE059091DF057E
:104B3000A091E005B091E105281B390B4A0B5B0BF6
:104B400057FF07C050954095309521953F4F4F4FE7
:104B50005F4FD10111962D933D934D935C93149724
:104B6000AD80BE80CF80D8848091E2059091E3052E
:104B7000A091E405B091E505A81AB90ACA0ADB0AB2
:104B8000F101A582B682C782D086D7FE0BC08827E6
:104B90009927DC018A199B09AC09BD098583968395
:104BA000A783B08729853A854B855C858091E6058A
:104BB0009091E705A091E805B091E905281B390B14
:104BC0004A0B5B0B57FF07C05095409530952195D8
:104BD0003F4F4F4F5F4FD10119962D933D934D930A
:104BE0005C931C971596ED90FD900D911C91189774
:104BF00011968D919D910D90BC91A02D8E159F05C4
:104C0000A007B10710F4D801C70182179307A407C2
:104C1000B50710F4DA01C901F10185879687A787E6
:104C2000B08B0097A105B10509F455C269817A815D
:104C30008B819C812091DE053091DF054091E0055C
:104C40005091E105621B730B840B950B0E946E3330
:104C500020913F0630914006409141065091420616
:104C60000E94D33269A37AA38BA39CA3C601B5018A
:104C70000E946E33209143063091440640914506D0
:104C8000509146060E94D3326D8F7E8F8F8F98A3EE
:104C900069857A858B859C852091E6053091E705AD
:104CA0004091E8055091E905621B730B840B950B4D
:104CB0000E946E3320914706309148064091490684
:104CC00050914A060E94D332698F7A8F8B8F9C8FC6
:104CD00069A17AA18BA19CA19B01AC010E94A13585
:104CE0007B018C016D8D7E8D8F8D98A19B01AC0118
:104CF0000E94A1359B01AC01C801B7010E94F331AC
:104D00007B018C01698D7A8D8B8D9C8D9B01AC0113
:104D10000E94A1359B01AC01C801B7010E94F3318B
:104D20000E942E367B018C01D1015D966D937D939F
:104D30008D939C93909760E070E080E89FE3A801DA
:104D400097010E94D3323B014C01B9A5BB2349F422
:104D50006DA17EA18FA198A5A40193010E94A13508
:104D60000AC060E070E080E89FE32DA13EA14FA162
:104D700058A50E94D3325B016C01C801B701A6019E
:104D800095010E94A1356AA77BA78CA79DA7F10179
:104D9000618B728B838B948B6585768587859089F3
:104DA0000E946E337B018C01A60195010E94A13502
:104DB0000E94B9320E944033D101D7966D937D9302
:104DC0008D939C93DA97C801B701A40193010E94C7
:104DD000A13520915A0630915B0640915C065091B6
:104DE0005D060E94A13520E030E84BE355E40E94C7
:104DF000D3320E94B9320E943B33F10163A774A7FA
:104E000085A796A769A17AA18BA19CA1A401930172
:104E10000E94A1357B018C016D877E878F87988BDF
:104E20006D8D7E8D8F8D98A1A40193010E94A13577
:104E30005B016C01698B7A8B8B8B9C8B698D7A8D76
:104E40008B8D9C8DA40193010E94A1353B014C01E7
:104E50006D8B7E8B8F8B988F9091DB058091DC051D
:104E6000981709F4BDC0F091F605FEA72091F7054B
:104E70002FA75090F8054090F9056F2F722F852DC0
:104E8000942D20E030E040E050E00E94CF3418162E
:104E90000CF0A6C06091EA057091EB058091EC05DD
:104EA0009091ED059058A80197010E94A1357B01D2
:104EB0008C016091EE057091EF058091F005909165
:104EC000F105A60195010E94A1359B01AC01C80125
:104ED000B7010E94F2317B018C01C401B301209122
:104EE000F2053091F3054091F4055091F5050E94CB
:104EF000A1359B01AC01C801B7010E94F2317B01D1
:104F00008C0123E333E343E75FE30E94CC32882341
:104F10000CF066C06EA57FA5852D942D2AA53BA516
:104F20004CA55DA50E94CC3287FD08C08AA59BA533
:104F3000ACA5BDA58EA79FA75A2E4B2EC801B701C1
:104F400023E333E343E75FEB0E94CF3418160CF002
:104F50004CC060E070E080E89FE3A80197010E94E8
:104F6000F23120E030E040E05FE30E94A1350E9492
:104F70002E365B016C0160915A0670915B06809140
:104F80005C0690915D0620915E0630915F0640912F
:104F90006006509161060E94A135A60195010E940C
:104FA000A1357B018C0160E070E080E89FE3A60101
:104FB00095010E94F2319B01AC01C801B7010E942A
:104FC000D3320E942E365B016C016EA57FA5852D24
:104FD000942D9501A6010E94CC3287FD06C009C020
:104FE000AA24BB24CC24DD2404C0AEA4BFA4C52CB9
:104FF000D42CC501D601F101818F928FA38FB48F7C
:1050000060915A0670915B0680915C0690915D06F6
:105010009058E58CF68C078D10A120E030E040E040
:1050200050E071D9162F072FF82EE92EB501C601D1
:10503000212F302F4F2D5E2D0E94CC3287FD04C0D2
:10504000A12EB02ECF2CDE2CC501D601F101858B0F
:10505000968BA78BB08F6189728983899489212F60
:10506000302F4F2D5E2D0E94CC3218162CF081E08F
:10507000D10192968C9302C0F10112A281E0D1017C
:1050800091968C93AAEEB5E0FE013D968CE00190DE
:105090000D928150E1F7F10181899289A389B48948
:1050A0008093F6059093F705A093F805B093F90562
:1050B0008091DD058093DB058091DB0590D880939E
:1050C000DD05AEEDB5E0FE0131968CE001900D926C
:1050D0008150E1F71CDBAF960FB6F894DEBF0FBE30
:1050E000CDBFCF91DF911F910F91FF90EF90DF9097
:1050F000CF90BF90AF909F908F907F906F905F9078
:105100004F903F902F9008951F931BE306C00E947D
:1051100029128091FA05882391F49091DB05809102
:10512000DC05981741F08091DC05819FC0011124B6
:105130008B549E4F61F78091FB05833041F31F91A3
:1051400008958DD88CE1EEEDF5E0DF011D928A9592
:10515000E9F7089520EA3FE004C0F9013197F1F73B
:1051600001970097D1F70895EF92FF920F931F9345
:105170006091FD057091FE058091FF0590910006FC
:1051800020910106309102064091030650910406D9
:10519000E0900506F09006060091070610910806BB
:1051A00091D86091FD057091FE058091FF05909169
:1051B00000062091010630910206409103065091AD
:1051C0000406E0900506F09006060091070610918F
:1051D00008060E94B7081F910F91FF90EF90089565
:1051E0006F927F928F929F92AF92BF92CF92DF92F7
:1051F000EF92FF920F931F93CF93DF934C013B01EC
:105200005A01FB018081F401E80FF11DEF01899142
:105210008D3229F481812196CC24C39405C08B3230
:1052200011F481812196CC2420E030E040E050E070
:10523000DD24E0E070E0682F60536A30F8F4EF5F3F
:10524000E930C0F47111DA94DA01C901F2E0880F93
:10525000991FAA1FBB1FFA95D1F7280F391F4A1FA4
:105260005B1F220F331F441F551F260F311D411D89
:10527000511D09C0772339F4D39405C06E3F29F43A
:10528000772319F471E08991D6CFEE2319F420E049
:1052900030E051C0CA01B9010E946C337B018C011E
:1052A00020E030E040E050E00E94CC32882369F4F6
:1052B0002BC0C801B7012AE037ED43E25CE30E944E
:1052C000A1357B018C01F2E0DF0E8FEFD8168CF355
:1052D000D81659F4C801B7012DEC3CEC4CEC5DE359
:1052E0000E94A1357B018C010FC0DD2069F0C8014F
:1052F000B70120E030E040E251E40E94A1357B019B
:105300008C01DA941D149CF3CC2049F0D801C7011C
:10531000B058F50180839183A283B38305C0F50162
:10532000E082F18202831383882D80958C0FF30134
:10533000808321E030E0C901DF91CF911F910F916F
:10534000FF90EF90DF90CF90BF90AF909F908F90A5
:105350007F906F90089584B184B985B185B98091AB
:10536000620683FF08C080916B0080936B00809180
:105370006800816007C080916B0080936B00809112
:1053800068008E7F8093680008951F920F920FB679
:105390000F9211242F933F934F935F936F937F93BB
:1053A0008F939F93AF93BF93EF93FF938091FB05F0
:1053B000863059F08091FC0585FD07C00E94690484
:1053C0008091FC0580648093FC05FF91EF91BF9173
:1053D000AF919F918F917F916F915F914F913F918D
:1053E0002F910F900FBE0F901F9018958F929F9244
:1053F000AF92BF92CF92DF92EF92FF920F931F93E3
:10540000DF93CF93CDB7DEB72A970FB6F894DEBF00
:105410000FBECDBF7B018C0120E030E040E050E0CA
:105420000E94CC3288233CF48DE20E94C31117FB0A
:10543000109517F91095A0907306DA2C0CC0C801CE
:10544000B70120E030E048EC52E40E94A1357B0136
:105450008C018EEFD80EE1E0ED1588F3A0FE0AC0B6
:10546000C801B70120E030E040E251E40E94A135DC
:105470007B018C01C801B70120E030E040E05FE330
:10548000B2D70E943B336B017C019E012F5F3F4FDF
:10549000F901EA0DF11D8EE28083BB2449011EC093
:1054A000BA1409F4B39484010B0D111DC701B601A0
:1054B0002AE030E040E050E00E94AD36605DF80147
:1054C0006083B394C701B6012AE030E040E050E0C9
:1054D0000E94AD36C901DA016C017D01C114D1040D
:1054E000E104F104E9F606C0FC01EB0DF11D208397
:1054F000B39403C0CE01019620E3BA14A8F3BA1402
:1055000089F48B2D8F5FFE01E80FF11D90E39183ED
:10551000B82EB39407C0FE01EB0DF11D80810E94EF
:10552000C311BA94BB20B9F72A960FB6F894DEBF20
:105530000FBECDBFCF91DF911F910F91FF90EF90E4
:10554000DF90CF90BF90AF909F908F9008958F92F3
:105550009F92BF92CF92DF92EF92FF920F931F9391
:10556000DF93CF93CDB7DEB72A970FB6F894DEBF9F
:105570000FBECDBF7B018C0197FF0BC08DE20E9457
:10558000C31110950095F094E094E11CF11C011DED
:10559000111D67017801C114D104E104F10421F463
:1055A00080E30E94C3112FC0BB244E010894811CCC
:1055B000911C84010B0D111DC701B6012AE030E0DA
:1055C00040E050E00E94AD36605DF8016083B39426
:1055D000C701B6012AE030E040E050E00E94AD365D
:1055E000C901DA016C017D01C114D104E104F104A7
:1055F00001F707C0FE01EB0DF11D80810E94C31170
:10560000BA94BB20B9F72A960FB6F894DEBF0FBE46
:10561000CDBFCF91DF911F910F91FF90EF90DF9061
:10562000CF90BF909F908F9008950F931F93DF931B
:10563000CF93CDB7DEB728970FB6F894DEBF0FBE75
:10564000CDBF982FFE0131969E01275F3F4F892FD6
:10565000817081939695E217F307C9F78E01085F71
:105660001F4FF8018081805D0E94C31101501040DE
:105670000C171D07B1F728960FB6F894DEBF0FBEC2
:10568000CDBFCF91DF911F910F910895CF93DF93FD
:10569000EC0102C00E94C311FE012196849188236F
:1056A000C9F7DF91CF910895CF93DF93EC0103C049
:1056B00021960E94C31188818823D1F7DF91CF9171
:1056C0000895DA01923049F0933061F09130F9F4A5
:1056D000E7E8F7E022E130E01EC0E9E9F7E02EE379
:1056E00030E019C0813049F0813018F0823079F40F
:1056F00008C0E7EDF7E0849107C0EBEDF7E0849197
:1057000003C0E5EFF7E08491282F30E004C0E0E02B
:10571000F0E020E030E0ED93FC93C9010895382FCC
:10572000282F2EC0822F8F708093E900231721F439
:10573000762F942F50E006C07091EC009091ED0010
:105740005091F00091FF1BC08091EB008E7F809301
:10575000EB008091ED008D7F8093ED008091EB0058
:1057600081608093EB007093EC009093ED00509378
:10577000F0008091EE0087FD02C080E008952F5F69
:10578000273080F23F703093E90081E008950F9355
:105790001F93CF93DF93062FEC0110E02AC098816E
:1057A000992329F16B81E981FA812C81892F8F70EE
:1057B000873018F5223010F452E001C056E040E086
:1057C00028E030E003C04F5F220F331F2E173F0742
:1057D000D0F36295660F660F607C991F9927991F19
:1057E000692B4295407F452B9ADF882331F01F5F5C
:1057F00025961017A0F281E001C080E0DF91CF91E3
:105800001F910F91089580917A0688239CF404C01B
:10581000809179068823B9F08091E80082FFF8CF63
:105820008091E8008B778093E80008958091790655
:10583000882349F08091E80080FFF8CF8091E8004C
:105840008E778093E80008954091E4005091E50040
:1058500024E68091EC0080FF24C08091E80080FD68
:105860001EC080917906882311F482E00895853066
:1058700011F483E008958091EB0085FF02C081E080
:1058800008958091E4009091E5008417950709F34D
:10589000222311F484E008952150AC01DACF80E096
:1058A00008958091E80082FFDCCFF9CFEF92FF925C
:1058B0000F931F934FD056D008ED10E0F801808170
:1058C0008F77808380818068808380818F7D8083D3
:1058D00019BC1092790610927506109277061092F4
:1058E000760680EEE82EF12CF70180818B7F808395
:1058F000F80180818160808380E060E042E00FDF1A
:10590000E1EEF0E080818E7F8083E2EEF0E0808146
:1059100081608083808188608083F70180818E7FB1
:105920008083F8018081806180831F910F91FF90B7
:10593000EF900895E8EDF0E080818F7E8083E7EDC1
:10594000F0E080818160808384E082BF81E0809389
:105950007806ACCFE8EDF0E080818E7F80831092F6
:10596000E20008951092DA001092E10008951F926B
:105970000F920FB60F9211241F932F933F934F93C3
:105980005F936F937F938F939F93AF93BF93EF93A7
:10599000FF931091E9008091EC001092E900809152
:1059A000F000877F8093F0007894B3D11092E900E3
:1059B0008091F00088608093F0001F701093E900E0
:1059C000FF91EF91BF91AF919F918F917F916F91D7
:1059D0005F914F913F912F911F910F900FBE0F90AC
:1059E0001F9018951F920F920FB60F9211242F93AC
:1059F0003F934F935F936F937F938F939F93AF9357
:105A0000BF93EF93FF938091E10082FF0AC08091E2
:105A1000E20082FF06C08091E1008B7F8093E1006D
:105A2000E5D28091DA0080FF1DC08091D80080FF10
:105A300019C08091DA008E7F8093DA008091D900BE
:105A400080FF0CC080E189BD82E189BD09B400FE00
:105A5000FDCF81E080937906C9D204C019BC1092B1
:105A60007906C4D28091E10080FF18C08091E200E5
:105A700080FF14C08091E2008E7F8093E2008091CD
:105A8000E20080618093E2008091D8008062809380
:105A9000D80019BC85E080937906A8D28091E100F6
:105AA00084FF2DC08091E20084FF29C080E189BD80
:105AB00082E189BD09B400FEFDCF8091D8008F7DC1
:105AC0008093D8008091E1008F7E8093E1008091E7
:105AD000E2008F7E8093E2008091E20081608093FB
